:020000020000FC
:1000000008E00EBF0FEF0DBF0C941D006088A89094
:100010004028D0082078B048E0A0F068D85010C040
:1000200030187098B8C842454E424F2042454E4263
:100030004F2042454E424F00F9F30FEF04B9F0E074
:10004000E6E20E9429000E942F000E943C000E94CC
:1000500056000591003081F3003229F1089511E432
:10006000011BFF93EF93F0E0ECE045910A950F3F01
:10007000E1F7EF91FF910895440F30F4403089F09B
:1000800053E02C9A0C94480051E02C9A0C944800B0
:100090000E945C005A95E1F72C980E945C000C9439
:1000A0003C0063E0089567E00C9456000E945C00F9
:1000B0006A95E1F70C942100C7E0B0E0A0E0AA95B2
:0C00C000F1F7BA95D9F7CA95C1F7089579
:00000001FF
