:020000020000FC
:1000000008E00EBF0FEF0DBF0C941D006088A89094
:100010004028D0082078B048E0A0F068D85010C040
:1000200030187098B8C842454E424F2042454E4263
:100030004F2042454E424F00F9F30FEF04B9F0E074
:10004000E6E20E942D00003281F10E9431000E9400
:100050003E000E945A000C9421000591003061F38B
:10006000089511E4011BFF93EF93F0E0ECE045915C
:100070000A950F3FE1F7EF91FF910895440F30F497
:10008000403089F053E02C9A0C944A0051E02C9AAD
:100090000C944A000E945F005A95E1F72C980E9448
:1000A0005F000C943E0062E0089564E00E945A00F4
:1000B0000C9421000E945F006A95E1F70895C7E063
:1000C000B0E0A0E0AA95F1F7BA95D9F7CA95C1F7C3
:0200D000089591
:00000001FF
