:020000020000FC
:1000000008E00EBF0FEF0DBF0C9415006088A8909C
:100010004028D0082078B048E0A0F068D85010C040
:1000200030187098B8C842454E000FEF04B9F0E0A0
:10003000E6E205910030B9F111E4011BFF93EF9363
:10004000F0E0ECE04591003019F00A950C942200A4
:10005000440F58F4403099F02C9A0E9449000E94B5
:1000600049000E9449000C943A002C9A0E944900D1
:100070000C943A002C980E9449000C942800EF91AF
:10008000FF910E9449000E9449000E9449000C947F
:100090001900CAE0B0E0A0E0AA95F1F7BA95D9F747
:0800A000CA95C1F70895F9F3B8
:00000001FF
