:020000020000FC
:10000000436F64792773204C6162000008E00EBFE3
:100010000FEF0DBF0E9410010E945B010E9435018D
:100020000E9431010E9448010E943B010E945B0135
:100030000E94B7000E941E000C941800B1E0A1E0DD
:100040000C91123021F0153041F00C943E000A95CD
:100050000F3F49F40FE00C9433000395003119F47D
:1000600000E00C9433000E942D010E9496000AE2E9
:100070000E948E000E9453010C943E0008950E943D
:100080002901F1E0E2E00E94460008950E944D003F
:100090000E948E000030D1F7089501910895F1E09B
:1000A000E2E0B1E0A0E04C914F71133021F0143048
:1000B00069F00C94810001914A95EAF7003389F0C8
:1000C0000A9502930E948E000C94810001914A953A
:1000D000EAF7053361F0039502930E948E000C94B9
:1000E000810005E302930E948E000C94810000E3DE
:1000F00002930E948E000C948100039502930E944B
:100100008E000895299A0BB929980E945B010895E1
:100110000E94820002950E9482000895289A0E94FF
:100120008800089528980E9488000895B1E0A0E012
:10013000123029F0153051F00C910C94AB000C9159
:10014000003849F00A950C930C94AB000C910F38D1
:1001500011F003950C930E94920008950E94B7003D
:100160001123E1F70E94B7001123E1F308950E94E3
:10017000D6000C30B8F00C3290F0033568F002383D
:1001800040F00F3C18F010E00C94D50011E00C94F6
:10019000D50012E00C94D50013E00C94D50014E0C7
:1001A0000C94D50015E00C94D500089500E600935A
:1001B0007C0007E800937A0000917A0000640093C5
:1001C0007A0000917A0006FD0C94E100009179001C
:1001D0000895113059F42A990C94F2000E943101CB
:1001E0000C94F6000E9433010C94F600089590E3FD
:1001F000A7E3B2E00295B03091F0BA951FE0012379
:100200000A3042F00A0F0E948E000C94FB00029507
:100210000C94FB00090F0E948E000C9407010895B6
:10022000F1E0E2E0B1E0A0E000E80C93B1E0A1E091
:1002300000270C935FE04AE2419340E20E942101D3
:10024000089541935A955030E1F740E0408356E0DD
:10025000089502E00E949200089501E00E94920039
:1002600008952A9A08952A9808950FEF04B90AB9B3
:1002700000E007B9089508E20E94920001E00E94A0
:1002800092000FE00E94920006E00E949200089502
:1002900000E30E9482000E9482000E94820000E22D
:1002A0000E94820008952DE3992788270196F1F78F
:1002B0002A95D1F7089543E030E020E02A95F1F740
:0A02C0003A95D9F74A95C1F7089561
:00000001FF
