:020000020000FC
:040000000C941D003F
:10002C000C94620030303A30303A3030000008E046
:10003C000EBF0FEF0DBF0E9441000E9492000E9464
:10004C00F8000E94DC000E94D8000E94ED000E9483
:10005C00E0000E9433000C9431000CE0009381000E
:10006C0004EF0093890003E20093880002E0009300
:10007C006F0078940895F1E0E6E0B1E0A0E040E292
:10008C0050E10E944C000E945400089541935A95EF
:10009C005030E1F740E0408356E0089542E04D9344
:1000AC0043E04D9345E04D9349E04D9344E04D932F
:1000BC0045E04D9344270895B1E0A5E01F931FB789
:1000CC000C9103950A3001F500270C930E910395C2
:1000DC000630D1F400270C930E9103950A30A1F44D
:1000EC0000270C930E910395063071F400270C93A6
:1000FC000E910395043041F400270C930E91039557
:10010C00033011F400270C930C930E9492000E9470
:10011C00AC001FBF1F911895B1E0A0E0F1E0E6E044
:10012C0058E062E01AE30D9190E3090F01936A9590
:10013C005A956030C1F7503021F00E94A8000C9401
:10014C0099000895119362E05A9508950E94D00089
:10015C00F1E0E6E00E94B30008950E94BA000E940C
:10016C00C8000030D1F7089501910895299A0BB970
:10017C0029980E94F80008950E94BC0002950E94E4
:10018C00BC000895289A0E94C200089528980E94E5
:10019C00C200089502E00E94CC00089501E00E9484
:1001AC00CC0008952A9A08952A9808950FEF04B95F
:1001BC000AB9089508E20E94CC0001E00E94CC002C
:1001CC000FE00E94CC0006E00E94CC00089500E3F2
:1001DC000E94BC000E94BC000E94BC0000E20E9475
:1001EC00BC00089543E030E020E02A95F1F73A9501
:0801FC00D9F74A95C1F70895F7
:00000001FF
