:020000020000FC
:1000000008E00EBF0FEF0DBF30303A30303A3030DD
:1000100000000E946D000E944F000E944B000E9451
:100020006D000E9460000E946D000E9453000E94BB
:100030001B000C946B000E942200F0E0E8E00E949C
:100040002A00089502E00E944700089501E00E94FE
:10005000470008950E9431000E9443000030D1F70C
:10006000089505910030B9F10895299A0BB90E94BD
:100070006D0029980E946D0008950E943500029538
:100080000E9435000895289A0E943D0008952898FE
:100090000E943D0008952A9A08952A9808950FEF26
:1000A00004B90AB9089508E20E94470001E00E94DD
:1000B00047000FE00E94470006E00E9447000895B5
:1000C00000E30E9435000E9435000E94350000E2E6
:1000D0000E94350008950C946B0043E030E020E06E
:1000E0002A95F1F73A95D9F74A95C1F7089565E051
:0A00F0000E946D006A95E1F7089583
:00000001FF
