:020000020000FC
:1000000008E00EBF0FEF0DBF0C940B0030303A30FC
:10001000303A303000000E9423000E944A000E94C3
:100020003D000E94BA000E949E000E949A000E9419
:10003000BA000E94AF000E94BA000E94A2000E9473
:1000400064000C948C00F1E0E6E0B1E0A0E040E256
:1000500050E10E942E000E943700089541935A9566
:100060005030E1F740E0408356E041E008954D9381
:100070005A955030E1F744270895B1E0A0E00C9183
:1000800003950A3019F00C930C943F000D910395E1
:100090000C930895B1E0A0E0F1E0E6E058E062E002
:1000A0001AE30D9190E3090F01936A955A95603018
:1000B000C1F7503021F00E9460000C945100089567
:1000C000119362E05A9508950E949200F1E0E6E0F3
:1000D0000E946B0008950E9472000E94840000300C
:1000E000D1F7089501910030B9F00895299A0BB91C
:1000F0000E94BA0029980E94BA0008950E947600D2
:1001000002950E9476000895289A0E947E00089524
:1001100028980E947E0008950C948C000E943D0057
:100120000C948E0002E00E948800089501E00E9475
:10013000880008952A9A08952A9808950FEF04B91F
:100140000AB9089508E20E94880001E00E94880030
:100150000FE00E94880006E00E948800089500E3F6
:100160000E9476000E9476000E94760000E20E94C3
:100170007600089543E030E020E02A95F1F73A95C3
:10018000D9F74A95C1F7089565E00E94BA006A95CB
:04019000E1F70895F6
:00000001FF
