:020000020000FC
:040000000C941D003F
:10002C000C945B0030303A30303A3030000008E04D
:10003C000EBF0FEF0DBF0E9441000E948B000E946B
:10004C00F7000E94DB000E94D7000E94EC000E9487
:10005C00DF000E9433000C9431000CE0009381000F
:10006C0004EF0093890003E20093880002E0009300
:10007C006F0078940895F1E0E6E0B1E0A0E040E292
:10008C0050E10E944C000E945500089541935A95EE
:10009C005030E1F740E0408356E041E008954D9345
:1000AC005A955030E1F744270895B1E0A5E01F932D
:1000BC001FB70C9103950A3001F500270C930E9194
:1000CC0003950630D1F400270C930E9103950A305A
:1000DC00A1F400270C930E910395063071F40027C0
:1000EC000C930E910395043041F400270C930E9160
:1000FC000395033011F400270C930C930E948B0092
:10010C000E94A5001FBF1F911895B1E0A0E0F1E07F
:10011C00E6E058E062E01AE30D9190E3090F0193D9
:10012C006A955A956030C1F7503021F00E94A100B9
:10013C000C9492000895119362E05A9508950E94D0
:10014C00CF00F1E0E6E00E94AC0008950E94B300FD
:10015C000E94C1000030D1F7089501910895299AA9
:10016C000BB929980E94F70008950E94B5000295DA
:10017C000E94B5000895289A0E94BB000895289803
:10018C000E94BB0008950C94C9000E945B000C9463
:10019C00CB0002E00E94C500089501E00E94C5005A
:1001AC0008952A9A08952A9808950FEF04B90AB968
:1001BC00089508E20E94C50001E00E94C5000FE00E
:1001CC000E94C50006E00E94C500089500E30E944D
:1001DC00B5000E94B5000E94B50000E20E94B50077
:1001EC00089543E030E020E02A95F1F73A95D9F7ED
:0601FC004A95C1F70895C9
:00000001FF
