:020000020000FC
:1000000008E00EBF0FEF0DBF0E9454000E943600A3
:100010000E9454000E9432000E9454000E94470037
:100020000E9454000E943A0000E50E942A000C94AD
:10003000520001E00E942E00299A0BB90E94540040
:1000400029980E94540008950E941C0002950E9465
:100050001C000895289A0E942400089528980E9460
:10006000240008952A9A08952A9808950FEF04B954
:100070000AB9089508E20E942E0001E00E942E00B5
:100080000FE00E942E0006E00E942E00089500E37B
:100090000E941C000E941C000E941C0000E20E94A2
:1000A0001C0008950C94520043E030E020E02A95B3
:0C00B000F1F73A95D9F74A95C1F7089589
:00000001FF
