:020000020000FC
:040000000C941B0041
:10002C000C94310009050905090208E00EBF0FEF19
:10003C000DBF0E9478000E949A000E9400010E944D
:10004C00E4000E94E0000E94F5000E94E8000E947B
:10005C006A000C942F00B1E0A5E0F0E0E0E31F9300
:10006C001FB7BF93AF93FF93EF930F932F932491ED
:10007C000C91033041F0021791F40E945900259124
:10008C000E910C943D00AA950C91A395023039F475
:10009C0000270D93E395AA95AA950C943D000C911D
:1000AC0003950C945C0000270C9308950C930E940C
:1000BC009A000E94B4002F910F91EF91FF91AF9194
:1000CC00BF911FBF1F9118950CE00093810004EFA6
:1000DC000093890003E20093880002E000936F0014
:1000EC0078940895F1E0E0E2B1E0A0E040E250E164
:1000FC000E9483000E948B00089541935A955030C2
:10010C00E1F740E0408356E0089541E04D9343E031
:10011C004D9345E04D9349E04D9345E04D9346E0BA
:10012C004D9340E04D930895B1E0A0E0F1E0E0E2A2
:10013C0058E062E01AE30D9190E3090F01936A9580
:10014C005A956030C1F7503021F00E94B0000C94E9
:10015C00A1000895119362E05A9508950E94D80069
:10016C00F1E0E0E20E94BB0008950E94C2000E94F0
:10017C00D0000030D1F7089501910895299A0BB958
:10018C0029980E94000108950E94C40002950E94C3
:10019C00C4000895289A0E94CA00089528980E94C5
:1001AC00CA00089502E00E94D400089501E00E9464
:1001BC00D40008952A9A08952A9808950FEF04B947
:1001CC000AB9089508E20E94D40001E00E94D4000C
:1001DC000FE00E94D40006E00E94D400089500E3D2
:1001EC000E94C4000E94C4000E94C40000E20E944D
:1001FC00C400089543E030E020E02A95F1F73A95E9
:08020C00D9F74A95C1F70895E6
:00000001FF
