:020000020000FC
:1000000008E00EBF0FEF0DBF0C940B0030303A30FC
:10001000303A303000000E9421000E942C000E94E3
:10002000A1000E9485000E9481000E94A1000E9400
:1000300096000E94A1000E9489000E944B000C942F
:100040007300F1E0E6E040E250E141935A95503010
:10005000E1F740E040830895B1E0A0E0F1E0E6E0A0
:1000600041E358E062E01AE300E301936A955A9590
:100070006030D1F7503021F00E9441000C943400E0
:100080000895119362E05A950895B1E0A0E00C91B3
:1000900003950C9308950E947900F1E0E6E00E9438
:1000A000520008950E9459000E946B000030D1F761
:1000B000089501910030B9F00895299A0BB90E9472
:1000C000A10029980E94A10008950E945D00029558
:1000D0000E945D000895289A0E946500089528985E
:1000E0000E94650008950C9473000E9445000C94D2
:1000F000750002E00E946F00089501E00E946F0009
:1001000008952A9A08952A9808950FEF04B90AB914
:10011000089508E20E946F0001E00E946F000FE066
:100120000E946F0006E00E946F00089500E30E94A5
:100130005D000E945D000E945D0000E20E945D0083
:10014000089543E030E020E02A95F1F73A95D9F799
:100150004A95C1F7089565E00E94A1006A95E1F70C
:02016000089500
:00000001FF
