:020000020000FC
:1000000008E00EBF0FEF0DBF0E94F0000E94370105
:100010000E9419010E9415010E942C010E941F01DB
:100020000E9437010E941A000E948E000E94200048
:100030000C9414000E9409010AE20E946E000895C7
:10004000D1E0C1E00881123031F0153049F01130B3
:10005000E9F00C944C000A95003069F40C944C00C3
:100060000395073011F40C944C0008830AE20E94B7
:100070006E000C944C0008830E944D0000E20E9428
:100080006E0008810E944D000C944C0001E0088332
:100090000E9411010E941A00089540E8042B0E945A
:1000A000720008950E940901F1E0E2E00E94590007
:1000B00008950E9460000E946E000030D1F70895FC
:1000C00001910895299A0BB929980E943701089542
:1000D0000E94620002950E9462000895289A0E9480
:1000E0006800089528980E9468000895B1E0A0E093
:1000F000123029F0153051F00C910C948B000C91BA
:10010000003849F00A950C930C948B000C910F3831
:1001100011F003950C930E94720008950E949700BD
:100120001123E1F70E9497001123E1F308950E9443
:10013000B6000C30B8F00C3290F0033568F002389D
:1001400040F00F3C18F010E00C94B50011E00C9456
:10015000B50012E00C94B50013E00C94B50014E067
:100160000C94B50015E00C94B500089500E60093DA
:100170007C0007E800937A0000917A000064009305
:100180007A0000917A0006FD0C94C100009179007C
:100190000895113059F42A990C94D2000E94150147
:1001A0000C94D6000E9417010C94D600089590E399
:1001B000A7E3B2E00295B03091F0BA951FE00123B9
:1001C0000A3042F00A0F0E946E000C94DB00029588
:1001D0000C94DB00090F0E946E000C94E700089558
:1001E000F1E0E2E0B1E0A1E001E00C93B1E0A0E0D9
:1001F00000E80C935FE04AE2419340E20E94010173
:10020000089541935A955030E1F740E0408356E01D
:100210000895B1E0A0E000E80C9302E00E947200B3
:10022000089501E00E94720008952A9A08952A987C
:1002300008950FEF04B90AB900E007B9089508E27C
:100240000E94720001E00E9472000FE00E947200A2
:1002500006E00E947200089500E30E9462000E947E
:1002600062000E94620000E20E946200089543E082
:1002700030E020E02A95F1F73A95D9F74A95C1F791
:020280000895DF
:00000001FF
