:020000020000FC
:10000000436F64792773204C6162000008E00EBFE3
:100010000FEF0DBF0E940A010E9447010E942901B3
:100020000E9425010E943C010E942F010E9447016D
:100030000E94A8000E9420000E9439000C94180021
:10004000F0E0E0E0123021F0153051F00C9438006F
:10005000B1E0A1E00591003059F00D930C942A0015
:10006000B1E0A1E10591003019F00E930C9432003B
:1000700008950E941D01F1E0E1E00E944000089512
:100080000E9447000E9488000030D1F70895019136
:100090000895F1E0E1E0B1E0A0E04C914F71133040
:1000A00021F0143069F00C947B0001914A95EAF735
:1000B000003389F00A9502930E9488000C947B001B
:1000C00001914A95EAF7053361F0039502930E9486
:1000D00088000C947B0005E302930E9488000C9436
:1000E0007B0000E302930E9488000C947B00039540
:1000F00002930E9488000895299A0BB929980E94BA
:10010000470108950E947C0002950E947C0008959A
:10011000289A0E948200089528980E9482000895DB
:10012000B1E0A0E0123029F0153051F00C910C94A0
:10013000A5000C91003849F00A950C930C94A50089
:100140000C910F3811F003950C930E948C000895C8
:100150000E94B1001123E1F70E94B1001123E1F3E5
:1001600008950E94D0000C30B8F00C3290F00335A6
:1001700068F0023840F00F3C18F010E00C94CF000B
:1001800011E00C94CF0012E00C94CF0013E00C941B
:10019000CF0014E00C94CF0015E00C94CF0008952C
:1001A00000E600937C0007E800937A0000917A0053
:1001B000006400937A0000917A0006FD0C94DB0045
:1001C000009179000895113059F42A990C94EC00AB
:1001D0000E9425010C94F0000E9427010C94F0006D
:1001E000089590E3A7E3B2E00295B03091F0BA959C
:1001F0001FE001230A3042F00A0F0E9488000C948D
:10020000F50002950C94F500090F0E9488000C94EB
:1002100001010895F1E0E1E0B1E0A0E000E80C9315
:1002200050E140E20E941501089541935A955030E3
:10023000E1F740E0408356E0089502E00E948C0020
:10024000089501E00E948C0008952A9A08952A9842
:1002500008950FEF04B90AB900E007B9089508E25C
:100260000E948C0001E00E948C000FE00E948C0034
:1002700006E00E948C00089500E30E947C000E942A
:100280007C000E947C0000E20E947C00089543E014
:1002900030E020E02A95F1F73A95D9F74A95C1F771
:0202A0000895BF
:00000001FF
