:020000020000FC
:1000000008E00EBF0FEF0DBF0E94C0000E94A200CB
:100010000E949E000E94B5000E94A8000E94C0009D
:100020000E944D000E947D000C9414000E941F004D
:100030000023E1F70E941F000023E1F308950E94CE
:100040004D000F3F91F0102F2CE0121BEAF0102F03
:100050002CE2121BB2F0102F23E5121B7AF0102FA6
:1000600022E8121B42F00C94380000E00C94470088
:1000700001E00C94470002E00C94470003E00C946C
:10008000470004E00C94470005E00C9447000895F5
:1000900010E8012B0E947900089500E600937C008F
:1000A00007E800937A0000917A00006400937A00D8
:1000B00000917A0006FD0C94580000917900089593
:1000C0000E9467000E9475000030D1F708950191E9
:1000D0000895299A0BB929980E94C00008950E949A
:1000E000690002950E9469000895289A0E946F0095
:1000F000089528980E946F00089590E3A7E3B2E066
:100100000295B03091F0BA951FE001230A3042F019
:100110000A0F0E9475000C94810002950C948100D6
:10012000090F0E9475000C948D00089502E00E9452
:100130007900089501E00E94790008952A9A0895AF
:100140002A9808950FEF04B90AB900E007B9089595
:1001500008E20E94790001E00E9479000FE00E940D
:10016000790006E00E947900089500E30E9469008A
:100170000E9469000E94690000E20E9469000895DF
:1001800043E030E020E02A95F1F73A95D9F74A9517
:04019000C1F7089516
:00000001FF
