:020000020000FC
:100000000E94160008E00EBF0FEF0DBF0E947000A7
:100010000E9454000E9450000E9465000E945800F7
:100020000E9470000E9416000C94140090E3A7E058
:100030001FE500EF012302950A300AF00A0F090FAD
:100040008FE060E3060F0E94400067E3060F0E9406
:1000500040000FE008950E9432000E9440000030EE
:10006000D1F7089501910895299A0BB929980E9412
:10007000700008950E94340002950E943400089593
:10008000289A0E943A00089528980E943A000895FC
:1000900002E00E944400089501E00E944400089597
:1000A0002A9A08952A9808950FEF04B90AB9089575
:1000B00008E20E94440001E00E9444000FE00E9418
:1000C000440006E00E944400089500E30E943400CA
:1000D0000E9434000E94340000E20E94340008951F
:1000E00043E030E020E02A95F1F73A95D9F74A95B8
:0400F000C1F70895B7
:00000001FF
