:020000020000FC
:1000000008E00EBF0FEF0DBF0E9475000E9459005F
:100010000E9455000E946A000E945D000E947500C7
:100020000E9434000C94120000E600937C000E94B1
:100030001E000E942C000030D1F708950191089510
:10004000299A0BB929980E94750008950E942000F2
:1000500002950E9420000895289A0E942600089583
:1000600028980E942600089590E3A7E3B2E0129535
:10007000B03091F0BA950FE001230A3042F00A0F38
:100080000E942C000C94380012950C943800090F33
:100090000E942C000C944400089502E00E9430005D
:1000A000089501E00E94300008952A9A08952A9840
:1000B00008950FEF04B90AB9089508E20E943000CC
:1000C00001E00E9430000FE00E94300006E00E9434
:1000D0003000089500E30E9420000E9420000E944A
:1000E000200000E20E942000089543E030E020E07C
:0E00F0002A95F1F73A95D9F74A95C1F7089588
:00000001FF
