:020000020000FC
:1000000008E00EBF0FEF0DBF0E94E5000E94220125
:100010000E9404010E9400010E9417010E940A012F
:100020000E9422010E941A000E949A000E945A0017
:100030000C941200B1E0A0E0023029F0053051F03C
:100040000C910C942F000C91003849F00A950C93F8
:100050000C942F000C910F3811F003950C930E9413
:10006000C8000895F1E0E1E0B1E0A0E04C914F71EB
:10007000033021F0043069F00C94590011914A9535
:10008000E9F71032B1F01134A1F01A9510830C94F5
:10009000590011914A95E9F710811A3551F040E263
:1000A00014130C94570011E410830C945900139509
:1000B000108308950E9463000023E1F70E9463000B
:1000C0000023E1F308950E948700102F1C30D8F020
:1000D000102F1C32A8F0102F133578F0102F123883
:1000E00048F0102F1F3C18F000E00C94860001E04F
:1000F0000C94860002E00C94860003E00C948600C9
:1001000004E00C94860005E00C948600089500E657
:1001100000937C0007E800937A0000917A00006465
:1001200000937A0000917A0006FD0C9492000091F1
:1001300079000895013059F42A990C94A3000E9483
:1001400000010C94A7000E9402010C94A7000895DE
:100150000E94F800F1E0E1E00E94AF0008950E94E3
:10016000B6000E94C4000030D1F7089501910895AF
:10017000299A0BB929980E94220108950E94B8007B
:1001800002950E94B8000895289A0E94BE00089522
:1001900028980E94BE00089590E3A7E3B2E002957C
:1001A000B03091F0BA951FE001230A3042F00A0FF7
:1001B0000E94C4000C94D00002950C94D000090F4A
:1001C0000E94C4000C94DC000895F1E0E1E0B1E08D
:1001D000A0E000E80C9350E140E20E94F000089596
:1001E00041935A955030E1F740E0408356E008953E
:1001F00002E00E94C800089501E00E94C80008952E
:100200002A9A08952A9808950FEF04B90AB900E0D0
:1002100007B9089508E20E94C80001E00E94C800E2
:100220000FE00E94C80006E00E94C800089500E3A5
:100230000E94B8000E94B8000E94B80000E20E942C
:10024000B800089543E030E020E02A95F1F73A95B0
:08025000D9F74A95C1F70895A2
:00000001FF
