:020000020000FC
:1000000008E00EBF0FEF0DBF0E94E5000E94220125
:100010000E9404010E9400010E9417010E940A012F
:100020000E9422010E942A000E94AA000E946A00E7
:100030000C9412000E94F800F1E0E1E00E9421001F
:1000400008950E9428000E94C4000030D1F708954E
:1000500001910895B1E0A0E0123029F0153051F07F
:100060000C910C943F000C91003849F00A950C93C8
:100070000C943F000C910F3811F003950C930E94E3
:10008000C8000895F1E0E1E0B1E0A0E04C914F71CB
:10009000033021F0043069F00C94690011914A9505
:1000A000E9F71032B1F01134A1F01A9510830C94D5
:1000B000690011914A95E9F710811A3551F040E233
:1000C00014130C94670011E410830C9469001395C9
:1000D000108308950E9473001123E1F70E947300BA
:1000E0001123E1F308950E949700102F1C30D8F0DF
:1000F000102F1C32A8F0102F133578F0102F123863
:1001000048F0102F1F3C18F010E00C94960011E0FE
:100110000C94960012E00C94960013E00C94960058
:1001200014E00C94960015E00C949600089500E6F7
:1001300000937C0007E800937A0000917A00006445
:1001400000937A0000917A0006FD0C94A2000091C1
:1001500079000895113059F42A990C94B3000E9443
:1001600000010C94B7000E9402010C94B70008959E
:10017000299A0BB929980E94220108950E94B8007B
:1001800002950E94B8000895289A0E94BE00089522
:1001900028980E94BE00089590E3A7E3B2E002957C
:1001A000B03091F0BA951FE001230A3042F00A0FF7
:1001B0000E94C4000C94D00002950C94D000090F4A
:1001C0000E94C4000C94DC000895F1E0E1E0B1E08D
:1001D000A0E000E80C9350E140E20E94F000089596
:1001E00041935A955030E1F740E0408356E008953E
:1001F00002E00E94C800089501E00E94C80008952E
:100200002A9A08952A9808950FEF04B90AB900E0D0
:1002100007B9089508E20E94C80001E00E94C800E2
:100220000FE00E94C80006E00E94C800089500E3A5
:100230000E94B8000E94B8000E94B80000E20E942C
:10024000B800089543E030E020E02A95F1F73A95B0
:08025000D9F74A95C1F70895A2
:00000001FF
