:020000020000FC
:1000000008E00EBF0FEF0DBF0E94E7000E94240121
:100010000E9406010E9402010E9419010E940C0127
:100020000E9424010E941C000E946D000E94C000DA
:100030000E9485000C941200F1E0E1E0B1E0A0E044
:100040004C914F71133021F0143079F00C9448002A
:1000500001914A95EAF70032D9F00134C9F00A95C6
:1000600002930E9465000C94480001914A95EAF7BA
:100070000A3571F040E204130C94440001E4029349
:100080000E9465000C944800039502930E9465004D
:1000900008950E94FA00F1E0E1E00E945000089506
:1000A0000E9457000E9465000030D1F70895019129
:1000B0000895299A0BB929980E94240108950E9455
:1000C000590002950E9459000895289A0E945F00E5
:1000D000089528980E945F000895B1E0A0E01230D2
:1000E00029F0153051F00C910C9482000C910038DD
:1000F00049F00A950C930C9482000C910F3811F082
:1001000003950C930E94690008950E948E001123AC
:10011000E1F70E948E001123E1F308950E94AD00E3
:100120000C30B8F00C3290F0033568F0023840F033
:100130000F3C18F010E00C94AC0011E00C94AC00F3
:1001400012E00C94AC0013E00C94AC0014E00C949E
:10015000AC0015E00C94AC00089500E600937C0020
:1001600007E800937A0000917A00006400937A0017
:1001700000917A0006FD0C94B80000917900089572
:10018000113059F42A990C94C9000E9402010C9470
:10019000CD000E9404010C94CD00089590E3A7E3E4
:1001A000B2E00295B03091F0BA951FE001230A3019
:1001B00042F00A0F0E9465000C94D20002950C9444
:1001C000D200090F0E9465000C94DE000895F1E052
:1001D000E1E0B1E0A0E000E80C9350E140E20E94D1
:1001E000F200089541935A955030E1F740E0408382
:1001F00056E0089502E00E946900089501E00E941F
:10020000690008952A9A08952A9808950FEF04B96D
:100210000AB900E007B9089508E20E94690001E008
:100220000E9469000FE00E94690006E00E946900D8
:10023000089500E30E9459000E9459000E9459004D
:1002400000E20E945900089543E030E020E02A9542
:0C025000F1F73A95D9F74A95C1F70895E7
:00000001FF
