:020000020000FC
:1000000008E00EBF0FEF0DBF0E9464000E94480081
:100010000E9444000E9459000E944C000E9464000B
:100020000E9414000C94120011E900EF01230295C4
:100030000E943400029510230E94340008950E940B
:1000400026000E9434000030D1F7089501910895F0
:10005000299A0BB929980E94640008950E942800EB
:1000600002950E9428000895289A0E942E00089563
:1000700028980E942E00089502E00E9438000895FA
:1000800001E00E94380008952A9A08952A98089558
:100090000FEF04B90AB9089508E20E94380001E0A0
:1000A0000E9438000FE00E94380006E00E943800ED
:1000B000089500E30E9428000E9428000E94280062
:1000C00000E20E942800089543E030E020E02A95F5
:0C00D000F1F73A95D9F74A95C1F7089569
:00000001FF
